:0A0000000C9433000C9400000C94E3
:10000A0000000C9400000C9400000C9400000C9466
:10001A0000000C9400000C9400000C9400000C9456
:10002A0000000C9400000C9400000C9400000C9446
:10003A0000000C9400000C9400000C9400000C9436
:10004A0000000C9400000C9400003F065B4F666DA4
:10005A007D077F6F0A00600254000000F894EE27C3
:10006A00ECBBF1E0FBBFEBBFE5BF8DE0A2E0BB2735
:10007A00ED938A95E9F780E098E0A0E6ED93019781
:10008A00E9F7EEE5F0E085919591009761F0A59189
:10009A00B59105901590BF01F00105900D92019759
:1000AA00E1F7FB01F0CFEFE5EDBFE8E0EEBFC0E618
:1000BA00D2E00C94B700BA93AA93E881F981E05A86
:1000CA00FD4FE081EBBB0EC0BA93AA93E881F98198
:1000DA00309711F4E6E005C0A881B981119711F4AF
:1000EA00E9E0E5BB22960895BA93AA93A0E0B0E0AE
:1000FA00EBDFB6D0EA81FB813097E9F4E8E0E2BBB6
:10010A00AFD0B2D0B4D0E1E0E2BBF20131972F0117
:10011A003196B0D0A881B981129759F4E8E0E2BBD0
:10012A009FD0A2D0A4D0E1E0E2BBF20131972F0127
:10013A00A1D0A3D015C0AA81BB81119789F4E1E0AF
:10014A00E2BB8ED094D090D09BD0A881B98112976F
:10015A0031F4E1E0E2BB84D08AD086D091D08DD050
:10016A0024960895EFEFEABBEBBBE0E0E7BBEFEFC5
:10017A00E8BBE4BBE0E0E5BBEFEFE1BBE0E0E2BBFC
:10018A00E3BFE2BFECBFEFBDEEBDEDBDECBDE7BD29
:10019A00E6BDEBBDEABDE9BDE8BDE2BDE5BDE4BD36
:1001AA00E3BDE9BFE5BFE4BFEAB9E0E8E8B9E0E0EA
:1001BA00E0BFE6B9EDB9E6BFE1E0F0E02F01D20118
:1001CA007ADFE1E0F0E0E415F505B1F4B09902C098
:1001DA0054D011C0B19906C0E1E0F0E0FA93EA9375
:1001EA00A1E007C0B29907C0E1E0F0E0FA93EA9310
:1001FA00A2E0B0E079DF32C0E2E0F0E0E415F50514
:10020A0099F4B19902C039D00EC0B09903C0E0E0A8
:10021A00F0E004C0B29907C0E1E0F0E0FA93EA9393
:10022A00A1E0B0E061DF1AC0E3E0F0E0E415F50513
:10023A00A9F4B29902C021D011C0B19906C0E0E078
:10024A00F0E0FA93EA93A1E007C0B09907C0E0E0B2
:10025A00F0E0FA93EA93A2E0B0E046DFB2CFFFCF34
:10026A00A4E6B0E00C944B01E4E0E2BBF9CFE2E093
:10027A00E2BBF6CFD2011FDFF3CFA1E0B0E024CF7B
:10028A00E8E0E2BBF20131962F01F4CF109639F083
:10029A0080ED97E00197F1F7A8951197C9F70895AE
:00000001FF
